{
  "_format": "hh-sol-artifact-1",
  "contractName": "DummyDao2",
  "sourceName": "contracts/Dao2.sol",
  "abi": [
    {
      "inputs": [],
      "stateMutability": "nonpayable",
      "type": "constructor"
    },
    {
      "inputs": [],
      "name": "DaoName",
      "outputs": [
        {
          "internalType": "string",
          "name": "",
          "type": "string"
        }
      ],
      "stateMutability": "view",
      "type": "function"
    },
    {
      "inputs": [
        {
          "internalType": "address",
          "name": "_addr",
          "type": "address"
        }
      ],
      "name": "addBalance",
      "outputs": [],
      "stateMutability": "nonpayable",
      "type": "function"
    },
    {
      "inputs": [
        {
          "internalType": "address",
          "name": "_addr",
          "type": "address"
        }
      ],
      "name": "addRepresentative",
      "outputs": [],
      "stateMutability": "nonpayable",
      "type": "function"
    },
    {
      "inputs": [],
      "name": "checkBalance",
      "outputs": [
        {
          "internalType": "uint256",
          "name": "",
          "type": "uint256"
        }
      ],
      "stateMutability": "view",
      "type": "function"
    },
    {
      "inputs": [
        {
          "internalType": "string",
          "name": "_msg",
          "type": "string"
        }
      ],
      "name": "createRequestForProposal",
      "outputs": [],
      "stateMutability": "nonpayable",
      "type": "function"
    },
    {
      "inputs": [
        {
          "internalType": "uint256",
          "name": "_id",
          "type": "uint256"
        }
      ],
      "name": "createSnapShot",
      "outputs": [],
      "stateMutability": "nonpayable",
      "type": "function"
    },
    {
      "inputs": [
        {
          "internalType": "uint256",
          "name": "_id",
          "type": "uint256"
        }
      ],
      "name": "getAProposal",
      "outputs": [
        {
          "components": [
            {
              "internalType": "uint256",
              "name": "_id",
              "type": "uint256"
            },
            {
              "internalType": "string",
              "name": "_msg",
              "type": "string"
            },
            {
              "internalType": "uint256",
              "name": "_yes",
              "type": "uint256"
            },
            {
              "internalType": "uint256",
              "name": "_no",
              "type": "uint256"
            },
            {
              "internalType": "bool",
              "name": "_passed",
              "type": "bool"
            }
          ],
          "internalType": "struct Proposal",
          "name": "",
          "type": "tuple"
        }
      ],
      "stateMutability": "view",
      "type": "function"
    },
    {
      "inputs": [
        {
          "internalType": "uint256",
          "name": "_id",
          "type": "uint256"
        }
      ],
      "name": "getASnapShot",
      "outputs": [
        {
          "components": [
            {
              "internalType": "uint256",
              "name": "_id",
              "type": "uint256"
            },
            {
              "internalType": "string",
              "name": "_msg",
              "type": "string"
            },
            {
              "internalType": "uint256",
              "name": "_yes",
              "type": "uint256"
            },
            {
              "internalType": "uint256",
              "name": "_no",
              "type": "uint256"
            },
            {
              "internalType": "bool",
              "name": "_passed",
              "type": "bool"
            }
          ],
          "internalType": "struct Proposal",
          "name": "",
          "type": "tuple"
        }
      ],
      "stateMutability": "view",
      "type": "function"
    },
    {
      "inputs": [],
      "name": "getAllProposals",
      "outputs": [
        {
          "components": [
            {
              "internalType": "uint256",
              "name": "_id",
              "type": "uint256"
            },
            {
              "internalType": "string",
              "name": "_msg",
              "type": "string"
            },
            {
              "internalType": "uint256",
              "name": "_yes",
              "type": "uint256"
            },
            {
              "internalType": "uint256",
              "name": "_no",
              "type": "uint256"
            },
            {
              "internalType": "bool",
              "name": "_passed",
              "type": "bool"
            }
          ],
          "internalType": "struct Proposal[]",
          "name": "",
          "type": "tuple[]"
        }
      ],
      "stateMutability": "view",
      "type": "function"
    },
    {
      "inputs": [],
      "name": "getAllSnapShots",
      "outputs": [
        {
          "components": [
            {
              "internalType": "uint256",
              "name": "_id",
              "type": "uint256"
            },
            {
              "internalType": "string",
              "name": "_msg",
              "type": "string"
            },
            {
              "internalType": "uint256",
              "name": "_yes",
              "type": "uint256"
            },
            {
              "internalType": "uint256",
              "name": "_no",
              "type": "uint256"
            },
            {
              "internalType": "bool",
              "name": "_passed",
              "type": "bool"
            }
          ],
          "internalType": "struct Proposal[]",
          "name": "",
          "type": "tuple[]"
        }
      ],
      "stateMutability": "view",
      "type": "function"
    },
    {
      "inputs": [],
      "name": "idProposal",
      "outputs": [
        {
          "internalType": "uint256",
          "name": "",
          "type": "uint256"
        }
      ],
      "stateMutability": "view",
      "type": "function"
    },
    {
      "inputs": [],
      "name": "idSnapShot",
      "outputs": [
        {
          "internalType": "uint256",
          "name": "",
          "type": "uint256"
        }
      ],
      "stateMutability": "view",
      "type": "function"
    },
    {
      "inputs": [],
      "name": "owner",
      "outputs": [
        {
          "internalType": "address",
          "name": "",
          "type": "address"
        }
      ],
      "stateMutability": "view",
      "type": "function"
    },
    {
      "inputs": [
        {
          "internalType": "address",
          "name": "",
          "type": "address"
        }
      ],
      "name": "representative",
      "outputs": [
        {
          "internalType": "bool",
          "name": "",
          "type": "bool"
        }
      ],
      "stateMutability": "view",
      "type": "function"
    },
    {
      "inputs": [
        {
          "internalType": "uint256",
          "name": "_id",
          "type": "uint256"
        },
        {
          "internalType": "bool",
          "name": "_vote",
          "type": "bool"
        }
      ],
      "name": "voteOnAProposal",
      "outputs": [],
      "stateMutability": "nonpayable",
      "type": "function"
    },
    {
      "inputs": [
        {
          "internalType": "uint256",
          "name": "_id",
          "type": "uint256"
        },
        {
          "internalType": "bool",
          "name": "_vote",
          "type": "bool"
        }
      ],
      "name": "voteOnASnapShot",
      "outputs": [],
      "stateMutability": "nonpayable",
      "type": "function"
    }
  ],
  "bytecode": "0x60806040526040518060400160405280600581526020017f44414f2d32000000000000000000000000000000000000000000000000000000815250600090816200004a9190620004f8565b503480156200005857600080fd5b5033600760006101000a81548173ffffffffffffffffffffffffffffffffffffffff021916908373ffffffffffffffffffffffffffffffffffffffff160217905550600160086000600760009054906101000a900473ffffffffffffffffffffffffffffffffffffffff1673ffffffffffffffffffffffffffffffffffffffff1673ffffffffffffffffffffffffffffffffffffffff16815260200190815260200160002060006101000a81548160ff0219169083151502179055506064600460007367099d557997e3ee308b3c49029c331a2d4569dc73ffffffffffffffffffffffffffffffffffffffff1673ffffffffffffffffffffffffffffffffffffffff168152602001908152602001600020819055506064600460007331b0f3eed8cafa7d09c862b7779aac826f3c446873ffffffffffffffffffffffffffffffffffffffff1673ffffffffffffffffffffffffffffffffffffffff1681526020019081526020016000208190555060646004600073e99db9cf24e39901228bfa70d05e1ae8b41262e373ffffffffffffffffffffffffffffffffffffffff1673ffffffffffffffffffffffffffffffffffffffff16815260200190815260200160002081905550600a60046000735ace6dfcc53446f105f0721650573ae9f4531af773ffffffffffffffffffffffffffffffffffffffff1673ffffffffffffffffffffffffffffffffffffffff16815260200190815260200160002081905550620005df565b600081519050919050565b7f4e487b7100000000000000000000000000000000000000000000000000000000600052604160045260246000fd5b7f4e487b7100000000000000000000000000000000000000000000000000000000600052602260045260246000fd5b600060028204905060018216806200030057607f821691505b602082108103620003165762000315620002b8565b5b50919050565b60008190508160005260206000209050919050565b60006020601f8301049050919050565b600082821b905092915050565b600060088302620003807fffffffffffffffffffffffffffffffffffffffffffffffffffffffffffffffff8262000341565b6200038c868362000341565b95508019841693508086168417925050509392505050565b6000819050919050565b6000819050919050565b6000620003d9620003d3620003cd84620003a4565b620003ae565b620003a4565b9050919050565b6000819050919050565b620003f583620003b8565b6200040d6200040482620003e0565b8484546200034e565b825550505050565b600090565b6200042462000415565b62000431818484620003ea565b505050565b5b8181101562000459576200044d6000826200041a565b60018101905062000437565b5050565b601f821115620004a85762000472816200031c565b6200047d8462000331565b810160208510156200048d578190505b620004a56200049c8562000331565b83018262000436565b50505b505050565b600082821c905092915050565b6000620004cd60001984600802620004ad565b1980831691505092915050565b6000620004e88383620004ba565b9150826002028217905092915050565b62000503826200027e565b67ffffffffffffffff8111156200051f576200051e62000289565b5b6200052b8254620002e7565b620005388282856200045d565b600060209050601f8311600181146200057057600084156200055b578287015190505b620005678582620004da565b865550620005d7565b601f19841662000580866200031c565b60005b82811015620005aa5784890151825560018201915060208501945060208101905062000583565b86831015620005ca5784890151620005c6601f891682620004ba565b8355505b6001600288020188555050505b505050505050565b6123fa80620005ef6000396000f3fe608060405234801561001057600080fd5b50600436106101005760003560e01c80639caeea1a11610097578063c71daccb11610066578063c71daccb14610297578063cceb68f5146102b5578063de2f3501146102d3578063dfbde3fc146102f157610100565b80639caeea1a14610225578063af13e71014610241578063b5cef24a1461025d578063bcb0447d1461027957610100565b806352dbf156116100d357806352dbf1561461019f57806381e3cdff146101cf5780638ae9fd19146101eb5780638da5cb5b1461020757610100565b806304c4ab6f146101055780633cc12f4a146101215780633eb3b145146101515780634983dbc314610181575b600080fd5b61011f600480360381019061011a9190611528565b61030f565b005b61013b60048036038101906101369190611568565b610565565b60405161014891906116b9565b60405180910390f35b61016b60048036038101906101669190611568565b6106a2565b60405161017891906116b9565b60405180910390f35b6101896107df565b6040516101969190611813565b60405180910390f35b6101b960048036038101906101b49190611893565b610979565b6040516101c691906118cf565b60405180910390f35b6101e960048036038101906101e49190611528565b610999565b005b61020560048036038101906102009190611893565b610bef565b005b61020f610cda565b60405161021c91906118f9565b60405180910390f35b61023f600480360381019061023a9190611568565b610d00565b005b61025b60048036038101906102569190611a49565b610f06565b005b61027760048036038101906102729190611893565b610f9e565b005b610281611084565b60405161028e9190611aa1565b60405180910390f35b61029f61108a565b6040516102ac9190611aa1565b60405180910390f35b6102bd6110d1565b6040516102ca9190611813565b60405180910390f35b6102db61126b565b6040516102e89190611aa1565b60405180910390f35b6102f9611271565b6040516103069190611b06565b60405180910390f35b6001600460003373ffffffffffffffffffffffffffffffffffffffff1673ffffffffffffffffffffffffffffffffffffffff168152602001908152602001600020541015610392576040517f08c379a000000000000000000000000000000000000000000000000000000000815260040161038990611b74565b60405180910390fd5b6001548211156103a157600080fd5b600015156009600084815260200190815260200160002060003373ffffffffffffffffffffffffffffffffffffffff1673ffffffffffffffffffffffffffffffffffffffff16815260200190815260200160002060009054906101000a900460ff16151514610445576040517f08c379a000000000000000000000000000000000000000000000000000000000815260040161043c90611c06565b60405180910390fd5b60016009600084815260200190815260200160002060003373ffffffffffffffffffffffffffffffffffffffff1673ffffffffffffffffffffffffffffffffffffffff16815260200190815260200160002060006101000a81548160ff02191690831515021790555080156104e5576002600083815260200190815260200160002060020160008154809291906104db90611c55565b9190505550610512565b60026000838152602001908152602001600020600301600081548092919061050c90611c55565b91905055505b6001600260008481526020019081526020016000206002015411156105615760016002600084815260200190815260200160002060040160006101000a81548160ff0219169083151502179055505b5050565b61056d611475565b6005548211156105b2576040517f08c379a00000000000000000000000000000000000000000000000000000000081526004016105a990611ce9565b60405180910390fd5b600660008381526020019081526020016000206040518060a0016040529081600082015481526020016001820180546105ea90611d38565b80601f016020809104026020016040519081016040528092919081815260200182805461061690611d38565b80156106635780601f1061063857610100808354040283529160200191610663565b820191906000526020600020905b81548152906001019060200180831161064657829003601f168201915b5050505050815260200160028201548152602001600382015481526020016004820160009054906101000a900460ff1615151515815250509050919050565b6106aa611475565b6001548211156106ef576040517f08c379a00000000000000000000000000000000000000000000000000000000081526004016106e690611db5565b60405180910390fd5b600260008381526020019081526020016000206040518060a00160405290816000820154815260200160018201805461072790611d38565b80601f016020809104026020016040519081016040528092919081815260200182805461075390611d38565b80156107a05780601f10610775576101008083540402835291602001916107a0565b820191906000526020600020905b81548152906001019060200180831161078357829003601f168201915b5050505050815260200160028201548152602001600382015481526020016004820160009054906101000a900460ff1615151515815250509050919050565b6060600060055467ffffffffffffffff8111156107ff576107fe61191e565b5b60405190808252806020026020018201604052801561083857816020015b610825611475565b81526020019060019003908161081d5790505b5090506000600190505b600554811161097157600660008281526020019081526020016000206040518060a00160405290816000820154815260200160018201805461088390611d38565b80601f01602080910402602001604051908101604052809291908181526020018280546108af90611d38565b80156108fc5780601f106108d1576101008083540402835291602001916108fc565b820191906000526020600020905b8154815290600101906020018083116108df57829003601f168201915b5050505050815260200160028201548152602001600382015481526020016004820160009054906101000a900460ff161515151581525050826001836109429190611dd5565b8151811061095357610952611e09565b5b6020026020010181905250808061096990611c55565b915050610842565b508091505090565b60086020528060005260406000206000915054906101000a900460ff1681565b6001600460003373ffffffffffffffffffffffffffffffffffffffff1673ffffffffffffffffffffffffffffffffffffffff168152602001908152602001600020541015610a1c576040517f08c379a0000000000000000000000000000000000000000000000000000000008152600401610a1390611b74565b60405180910390fd5b600554821115610a2b57600080fd5b60001515600a600084815260200190815260200160002060003373ffffffffffffffffffffffffffffffffffffffff1673ffffffffffffffffffffffffffffffffffffffff16815260200190815260200160002060009054906101000a900460ff16151514610acf576040517f08c379a0000000000000000000000000000000000000000000000000000000008152600401610ac690611eaa565b60405180910390fd5b6001600a600084815260200190815260200160002060003373ffffffffffffffffffffffffffffffffffffffff1673ffffffffffffffffffffffffffffffffffffffff16815260200190815260200160002060006101000a81548160ff0219169083151502179055508015610b6f57600660008381526020019081526020016000206002016000815480929190610b6590611c55565b9190505550610b9c565b600660008381526020019081526020016000206003016000815480929190610b9690611c55565b91905055505b600260066000848152602001908152602001600020600201541115610beb5760016006600084815260200190815260200160002060040160006101000a81548160ff0219169083151502179055505b5050565b600760009054906101000a900473ffffffffffffffffffffffffffffffffffffffff1673ffffffffffffffffffffffffffffffffffffffff163373ffffffffffffffffffffffffffffffffffffffff1614610c7f576040517f08c379a0000000000000000000000000000000000000000000000000000000008152600401610c7690611f3c565b60405180910390fd5b6001600860008373ffffffffffffffffffffffffffffffffffffffff1673ffffffffffffffffffffffffffffffffffffffff16815260200190815260200160002060006101000a81548160ff02191690831515021790555050565b600760009054906101000a900473ffffffffffffffffffffffffffffffffffffffff1681565b600860003373ffffffffffffffffffffffffffffffffffffffff1673ffffffffffffffffffffffffffffffffffffffff16815260200190815260200160002060009054906101000a900460ff16610d8c576040517f08c379a0000000000000000000000000000000000000000000000000000000008152600401610d8390611fce565b60405180910390fd5b60006002600083815260200190815260200160002060040160009054906101000a900460ff16905080610df4576040517f08c379a0000000000000000000000000000000000000000000000000000000008152600401610deb90612060565b60405180910390fd5b600015156003600084815260200190815260200160002060009054906101000a900460ff16151514610e5b576040517f08c379a0000000000000000000000000000000000000000000000000000000008152600401610e52906120f2565b60405180910390fd5b610f02600260008481526020019081526020016000206001018054610e7f90611d38565b80601f0160208091040260200160405190810160405280929190818152602001828054610eab90611d38565b8015610ef85780601f10610ecd57610100808354040283529160200191610ef8565b820191906000526020600020905b815481529060010190602001808311610edb57829003601f168201915b50505050506112ff565b5050565b600860003373ffffffffffffffffffffffffffffffffffffffff1673ffffffffffffffffffffffffffffffffffffffff16815260200190815260200160002060009054906101000a900460ff16610f92576040517f08c379a0000000000000000000000000000000000000000000000000000000008152600401610f8990611fce565b60405180910390fd5b610f9b816113ba565b50565b600860003373ffffffffffffffffffffffffffffffffffffffff1673ffffffffffffffffffffffffffffffffffffffff16815260200190815260200160002060009054906101000a900460ff1661102a576040517f08c379a000000000000000000000000000000000000000000000000000000000815260040161102190611fce565b60405180910390fd5b600a600460008373ffffffffffffffffffffffffffffffffffffffff1673ffffffffffffffffffffffffffffffffffffffff168152602001908152602001600020600082825461107a9190612112565b9250508190555050565b60015481565b6000600460003373ffffffffffffffffffffffffffffffffffffffff1673ffffffffffffffffffffffffffffffffffffffff16815260200190815260200160002054905090565b6060600060015467ffffffffffffffff8111156110f1576110f061191e565b5b60405190808252806020026020018201604052801561112a57816020015b611117611475565b81526020019060019003908161110f5790505b5090506000600190505b600154811161126357600260008281526020019081526020016000206040518060a00160405290816000820154815260200160018201805461117590611d38565b80601f01602080910402602001604051908101604052809291908181526020018280546111a190611d38565b80156111ee5780601f106111c3576101008083540402835291602001916111ee565b820191906000526020600020905b8154815290600101906020018083116111d157829003601f168201915b5050505050815260200160028201548152602001600382015481526020016004820160009054906101000a900460ff161515151581525050826001836112349190611dd5565b8151811061124557611244611e09565b5b6020026020010181905250808061125b90611c55565b915050611134565b508091505090565b60055481565b6000805461127e90611d38565b80601f01602080910402602001604051908101604052809291908181526020018280546112aa90611d38565b80156112f75780601f106112cc576101008083540402835291602001916112f7565b820191906000526020600020905b8154815290600101906020018083116112da57829003601f168201915b505050505081565b6005600081548092919061131290611c55565b919050555060006040518060a00160405280600554815260200183815260200160008152602001600081526020016000151581525090508060066000600554815260200190815260200160002060008201518160000155602082015181600101908161137e91906122f2565b50604082015181600201556060820151816003015560808201518160040160006101000a81548160ff0219169083151502179055509050505050565b600160008154809291906113cd90611c55565b919050555060006040518060a00160405280600154815260200183815260200160008152602001600081526020016000151581525090508060026000600154815260200190815260200160002060008201518160000155602082015181600101908161143991906122f2565b50604082015181600201556060820151816003015560808201518160040160006101000a81548160ff0219169083151502179055509050505050565b6040518060a00160405280600081526020016060815260200160008152602001600081526020016000151581525090565b6000604051905090565b600080fd5b600080fd5b6000819050919050565b6114cd816114ba565b81146114d857600080fd5b50565b6000813590506114ea816114c4565b92915050565b60008115159050919050565b611505816114f0565b811461151057600080fd5b50565b600081359050611522816114fc565b92915050565b6000806040838503121561153f5761153e6114b0565b5b600061154d858286016114db565b925050602061155e85828601611513565b9150509250929050565b60006020828403121561157e5761157d6114b0565b5b600061158c848285016114db565b91505092915050565b61159e816114ba565b82525050565b600081519050919050565b600082825260208201905092915050565b60005b838110156115de5780820151818401526020810190506115c3565b60008484015250505050565b6000601f19601f8301169050919050565b6000611606826115a4565b61161081856115af565b93506116208185602086016115c0565b611629816115ea565b840191505092915050565b61163d816114f0565b82525050565b600060a08301600083015161165b6000860182611595565b506020830151848203602086015261167382826115fb565b91505060408301516116886040860182611595565b50606083015161169b6060860182611595565b5060808301516116ae6080860182611634565b508091505092915050565b600060208201905081810360008301526116d38184611643565b905092915050565b600081519050919050565b600082825260208201905092915050565b6000819050602082019050919050565b600060a08301600083015161171f6000860182611595565b506020830151848203602086015261173782826115fb565b915050604083015161174c6040860182611595565b50606083015161175f6060860182611595565b5060808301516117726080860182611634565b508091505092915050565b60006117898383611707565b905092915050565b6000602082019050919050565b60006117a9826116db565b6117b381856116e6565b9350836020820285016117c5856116f7565b8060005b8581101561180157848403895281516117e2858261177d565b94506117ed83611791565b925060208a019950506001810190506117c9565b50829750879550505050505092915050565b6000602082019050818103600083015261182d818461179e565b905092915050565b600073ffffffffffffffffffffffffffffffffffffffff82169050919050565b600061186082611835565b9050919050565b61187081611855565b811461187b57600080fd5b50565b60008135905061188d81611867565b92915050565b6000602082840312156118a9576118a86114b0565b5b60006118b78482850161187e565b91505092915050565b6118c9816114f0565b82525050565b60006020820190506118e460008301846118c0565b92915050565b6118f381611855565b82525050565b600060208201905061190e60008301846118ea565b92915050565b600080fd5b600080fd5b7f4e487b7100000000000000000000000000000000000000000000000000000000600052604160045260246000fd5b611956826115ea565b810181811067ffffffffffffffff821117156119755761197461191e565b5b80604052505050565b60006119886114a6565b9050611994828261194d565b919050565b600067ffffffffffffffff8211156119b4576119b361191e565b5b6119bd826115ea565b9050602081019050919050565b82818337600083830152505050565b60006119ec6119e784611999565b61197e565b905082815260208101848484011115611a0857611a07611919565b5b611a138482856119ca565b509392505050565b600082601f830112611a3057611a2f611914565b5b8135611a408482602086016119d9565b91505092915050565b600060208284031215611a5f57611a5e6114b0565b5b600082013567ffffffffffffffff811115611a7d57611a7c6114b5565b5b611a8984828501611a1b565b91505092915050565b611a9b816114ba565b82525050565b6000602082019050611ab66000830184611a92565b92915050565b600082825260208201905092915050565b6000611ad8826115a4565b611ae28185611abc565b9350611af28185602086016115c0565b611afb816115ea565b840191505092915050565b60006020820190508181036000830152611b208184611acd565b905092915050565b7f596f7520646f6e2774206861766520656e6f75676820746f6b656e7300000000600082015250565b6000611b5e601c83611abc565b9150611b6982611b28565b602082019050919050565b60006020820190508181036000830152611b8d81611b51565b9050919050565b7f596f75206861766520616c726561647920766f746564206f6e2074686520707260008201527f6f706f73616c2e00000000000000000000000000000000000000000000000000602082015250565b6000611bf0602783611abc565b9150611bfb82611b94565b604082019050919050565b60006020820190508181036000830152611c1f81611be3565b9050919050565b7f4e487b7100000000000000000000000000000000000000000000000000000000600052601160045260246000fd5b6000611c60826114ba565b91507fffffffffffffffffffffffffffffffffffffffffffffffffffffffffffffffff8203611c9257611c91611c26565b5b600182019050919050565b7f4e6f207375636820736e617073686f7420657869737473000000000000000000600082015250565b6000611cd3601783611abc565b9150611cde82611c9d565b602082019050919050565b60006020820190508181036000830152611d0281611cc6565b9050919050565b7f4e487b7100000000000000000000000000000000000000000000000000000000600052602260045260246000fd5b60006002820490506001821680611d5057607f821691505b602082108103611d6357611d62611d09565b5b50919050565b7f4e6f20737563682070726f706f73616c20657869737473000000000000000000600082015250565b6000611d9f601783611abc565b9150611daa82611d69565b602082019050919050565b60006020820190508181036000830152611dce81611d92565b9050919050565b6000611de0826114ba565b9150611deb836114ba565b9250828203905081811115611e0357611e02611c26565b5b92915050565b7f4e487b7100000000000000000000000000000000000000000000000000000000600052603260045260246000fd5b7f596f75206861766520616c726561647920766f746564206f6e2074686520536e60008201527f617053686f742e00000000000000000000000000000000000000000000000000602082015250565b6000611e94602783611abc565b9150611e9f82611e38565b604082019050919050565b60006020820190508181036000830152611ec381611e87565b9050919050565b7f736f7272792c20796f75277265206e6f7420746865206f776e6572206f66207460008201527f68652044414f0000000000000000000000000000000000000000000000000000602082015250565b6000611f26602683611abc565b9150611f3182611eca565b604082019050919050565b60006020820190508181036000830152611f5581611f19565b9050919050565b7f736f7272792c20796f75277265206e6f74206120726570726573656e7461746960008201527f7665206f66207468652044414f00000000000000000000000000000000000000602082015250565b6000611fb8602d83611abc565b9150611fc382611f5c565b604082019050919050565b60006020820190508181036000830152611fe781611fab565b9050919050565b7f546865207265717565737420666f722070726f706f73616c206973206e6f742060008201527f7061737365642079657400000000000000000000000000000000000000000000602082015250565b600061204a602a83611abc565b915061205582611fee565b604082019050919050565b600060208201905081810360008301526120798161203d565b9050919050565b7f546865207265717565737420697320616c7265616479206120736e617073686f60008201527f7400000000000000000000000000000000000000000000000000000000000000602082015250565b60006120dc602183611abc565b91506120e782612080565b604082019050919050565b6000602082019050818103600083015261210b816120cf565b9050919050565b600061211d826114ba565b9150612128836114ba565b92508282019050808211156121405761213f611c26565b5b92915050565b60008190508160005260206000209050919050565b60006020601f8301049050919050565b600082821b905092915050565b6000600883026121a87fffffffffffffffffffffffffffffffffffffffffffffffffffffffffffffffff8261216b565b6121b2868361216b565b95508019841693508086168417925050509392505050565b6000819050919050565b60006121ef6121ea6121e5846114ba565b6121ca565b6114ba565b9050919050565b6000819050919050565b612209836121d4565b61221d612215826121f6565b848454612178565b825550505050565b600090565b612232612225565b61223d818484612200565b505050565b5b818110156122615761225660008261222a565b600181019050612243565b5050565b601f8211156122a65761227781612146565b6122808461215b565b8101602085101561228f578190505b6122a361229b8561215b565b830182612242565b50505b505050565b600082821c905092915050565b60006122c9600019846008026122ab565b1980831691505092915050565b60006122e283836122b8565b9150826002028217905092915050565b6122fb826115a4565b67ffffffffffffffff8111156123145761231361191e565b5b61231e8254611d38565b612329828285612265565b600060209050601f83116001811461235c576000841561234a578287015190505b61235485826122d6565b8655506123bc565b601f19841661236a86612146565b60005b828110156123925784890151825560018201915060208501945060208101905061236d565b868310156123af57848901516123ab601f8916826122b8565b8355505b6001600288020188555050505b50505050505056fea2646970667358221220b944a8ffa9178fff630f58b6ff9187f8e06c59fd86a980df580104bb3f6da13064736f6c63430008110033",
  "linkReferences": {},
  "deployedLinkReferences": {}
}